:100000000C9467010C948F010C948F010C948F0158
:100010000C948F010C948F010C948F010C948F0120
:100020000C948F010C948F010C94B00F0C9422103F
:100030000C948F010C948F010C948F010C948F0100
:100040000C948F010C948F010C948F010C948F01F0
:100050000C948F010C948F010C948F010C94B70EAB
:100060000C948F010C943C050C9416050C948F0194
:100070000C948F010C948F010C948F010C948F01C0
:100080000C948F010C948F010C948F010C948F01B0
:100090000C946E050C948F010C948F010C948F01BD
:1000A0000C948F010C948F010C948F019F0BA20B69
:1000B000910B950B990BC30BC30BC30BA60BAA0B90
:1000C000AE0BB40BB80BC30BBE0B00407A10F35A47
:1000D00000A0724E18090010A5D4E80000E8764888
:1000E000170000E40B54020000CA9A3B000000E134
:1000F000F505000080969800000040420F000000C7
:10010000A08601000000102700000000E8030000A6
:1001100000006400000000000A0000000000010070
:10012000000000002C76D888DC674F0823DFC1DF91
:10013000AE59E1B1B796E5E3E453C63AE651997694
:1001400096E8E6C28426EB898C9B62ED407C6FFCCE
:10015000EFBC9C9F40F2BAA56FA5F490055A2AF710
:100160005C936B6CF9676DC11BFCE0E40D47FEF519
:1001700020E6B500D0ED902E030094357705008081
:10018000841E080000204E0A000000C80C333333E0
:10019000330F986E12831141EF8D2114893BE65580
:1001A00016CFFEE6DB18D1844B381BF77C1D901D63
:1001B000A4BBE424203284725E228100C9F124ECC5
:1001C000A1E53D2772756E2D6272696467650A004C
:1001D0000A000A00070605040100080A0B0C0D09B5
:1001E00000000000240027002A002D00300000003D
:1001F000000200090F0000030401000C00000000D1
:1002000000000000000000000000000000040802E0
:10021000011040804010204080408008020401808E
:1002200040201002011080102040402000000000FB
:10023000250028002B002E003100040404040403D0
:100240000405020202020403020202020606060676
:10025000060604040202020404080B000202020162
:10026000000904000001020200000524001001053D
:10027000240101010424020605240600010705816A
:100280000310004009040100020A000000070502F3
:100290000240000007058302400000040309041225
:1002A000010002EF020140412341800001010203ED
:1002B0000141726475696E6F204C4C430041726459
:1002C00075696E6F2059756E00007119D112112475
:1002D0001FBECFEFDAE0DEBFCDBF24E0A2E4B2E084
:1002E00001C01D92A633B207E1F712E0A0E0B1E031
:1002F000E8E5F3E402C005900D92A234B107D9F706
:1003000011E0C6E6D1E004C02197FE010E948D1FD6
:10031000C536D107C9F70E94E1120C949F210C94B5
:100320000000FC01538D448D252F30E0842F90E098
:10033000821B930B541710F0CF96089501970895E0
:10034000FC01918D828D981761F0828DDF01A80FDD
:10035000B11D5D968C91928D9F5F9F73928F90E0FF
:1003600008958FEF9FEF0895FC01918D828D98176E
:1003700031F0828DE80FF11D858D90E008958FEFAB
:100380009FEF0895FC01918D228D892F90E0805C74
:100390009F4F821B91098F73992708958CE593E0F5
:1003A0000E94C20121E0892B09F420E0822F0895E8
:1003B000FC01848DDF01A80FB11DA35ABF4F2C9102
:1003C000848D90E001968F739927848FA689B789D1
:1003D0002C93A089B1898C9180648C93938D848DAA
:1003E000981306C00288F389E02D80818F7D808379
:1003F0000895EF92FF920F931F93CF93DF93EC0139
:1004000081E0888F9B8D8C8D981305C0E889F989D0
:10041000808185FD24C0F62E0B8D10E00F5F1F4FED
:100420000F731127E02E8C8DE8120CC00FB607FC5D
:10043000FACFE889F989808185FFF5CFCE010E9446
:10044000D801F1CF8B8DFE01E80FF11DE35AFF4F6C
:10045000F0820B8FEA89FB898081806207C0EE8978
:10046000FF896083E889F98980818064808381E0E5
:1004700090E0DF91CF911F910F91FF90EF90089541
:10048000CF93DF93EC01888D8823C9F0EA89FB893B
:10049000808185FD05C0A889B9898C9186FD0FC032
:1004A0000FB607FCF5CF808185FFF2CFA889B98907
:1004B0008C9185FFEDCFCE010E94D801E7CFDF916F
:1004C000CF91089580E090E0892B29F00E94CE0121
:1004D00081110C9400000895CF93DF931F92CDB744
:1004E000DEB76983DC01ED91FC910280F381E02DA0
:1004F00041E050E0BE016F5F7F4F09950F90DF91A3
:10050000CF91089583E08093E9008091F2008823E1
:1005100019F08AE38093E8000895FC0184859585AD
:1005200097FD0BC09FB7F89482E08093E90080911B
:10053000F2009FBF90E0019608959FB7F89482E083
:100540008093E9008091F2009FBF90E0089585EDCF
:100550008093BC008091BC0084FDFCCF1092D90236
:10056000089540918402262F30E0240F311D21325E
:100570003105DCF42091D9022430C9F4FC0180E07B
:1005800090E0861758F4309184022191DC01AE5935
:10059000BD4FA30FB11D2C930196F3CF8091840220
:1005A000680F6093840280E0089581E0089582E0FE
:1005B00008950895E091AA028091A902E81730F405
:1005C000F0E0EE5BFD4F808190E008958FEF9FEFAC
:1005D00008959091AA028091A902981750F4E92FEA
:1005E000F0E0EE5BFD4F208130E09F5F9093AA0228
:1005F00002C02FEF3FEFC90108958091A90290E05A
:100600002091AA02821B91090895CF92DF92EF9266
:10061000FF920F931F93CF93DF937C01262F972F89
:100620008A018091DA02882391F0C62FD72F6E01BC
:10063000C40ED51ECC15DD0571F06991D701ED9181
:10064000FC910190F081E02DC7010995F3CF642F53
:10065000822F0E94B102C801DF91CF911F910F91AB
:10066000FF90EF90DF90CF900895CF93DF931F928C
:10067000CDB7DEB769832091DA022223D1F0209131
:10068000FD02203240F021E030E0FC013383228380
:1006900080E090E015C08091DB02E82FF0E0E452AA
:1006A000FD4F998190838F5F8093DB028093FD02E1
:1006B00005C061E0CE0101960E94B10281E090E0A8
:1006C0000F90DF91CF9108950895CF93DF931F92FC
:1006D000CDB7DEB76983DC01ED91FC910280F38137
:1006E000E02D41E050E0BE016F5F7F4F09950F9014
:1006F000DF91CF910895089580E090E008958F9262
:100700009F92AF92BF92CF92DF92EF92FF920F93A0
:100710001F93CF93DF935C016B017A0180910B01F2
:10072000882309F45BC08091B202882309F456C083
:100730008091270480FF05C08091E0008260809353
:10074000E000E70110E00AEF83E0882E9AE3992E9B
:100750002097D9F10E944F0B81110AC0015009F472
:100760003DC061E070E080E090E00E94380CF0CF86
:10077000282F30E0C217D3070CF48C2F4FB7F89412
:100780008092E9009091E80095FF1DC0282F30E08D
:10079000C21BD30BF601982F915020F081918093CA
:1007A000F100FACFC20ED31E112319F09092E80087
:1007B00009C08091E80085FD06C09092E80011E034
:1007C000209709F010E04FBFC3CF1111C3CF5D9840
:1007D00084E6809328041E141F0444F081E090E016
:1007E000F5019383828380E090E001C0C701DF912F
:1007F000CF911F910F91FF90EF90DF90CF90BF901E
:10080000AF909F908F9008950E944F0B90E00895B5
:10081000CF93DF931F92CDB7DEB7FC01848595851A
:1008200097FD05C02FEF3FEF358724870BC0CE0122
:1008300001960E94250B019719F4898190E002C06E
:100840008FEF9FEF0F90DF91CF9108950F931F933C
:10085000CF93DF931F92CDB7DEB78C01FC01848567
:10086000958597FF0EC0CE0101960E94250B01973A
:1008700019F4298130E002C02FEF3FEFF8013587EE
:100880002487F801848595850F90DF91CF911F9182
:100890000F9108950E948A21AF92BF92CF92DF926A
:1008A000EF92FF920F931F93CF93DF9300D01F928D
:1008B000CDB7DEB7FC01E85AFF4F20812F3F11F181
:1008C0005A019B0147E64983319640814A83399713
:1008D000CC24C394D12CCE0103967C01850142E047
:1008E00050E0BE016F5F7F4F808191810E94720C4A
:1008F0008B81882329F090E091958195910904C01E
:10090000C50102C08FEF9FEF0F900F900F90DF9106
:10091000CF911F910F91FF90EF90DF90CF90BF90FC
:10092000AF900895AF92BF92CF92DF92EF92FF9275
:100930000F931F93CF93DF9300D01F92CDB7DEB7F5
:10094000FC01248521112FC05C01158687E4898371
:100950008FE38B83E75AFF4F80818A837501F0E133
:10096000EF0EF11CF501E05BFF4F80E4C82ED12CA7
:1009700000E010E020E030E043E050E0BE016F5FB7
:100980007F4F808191810E94720C9C01215031091E
:10099000F5012E3F3F4F10F0148605C095859F5FEF
:1009A0009587815084870F900F900F90DF91CF91A2
:1009B0001F910F91FF90EF90DF90CF90BF90AF907D
:1009C0000895CF93DF93EC010E9492048C8590E010
:1009D000DF91CF910895CF93DF93EC010E949204B1
:1009E0008C85882331F08D85C80FD11D888990E0D2
:1009F00002C08FEF9FEFDF91CF910895CF93DF93E8
:100A0000EC010E9492048C85882359F081508C87D8
:100A10008D8591E0980F9D87C80FD11D888990E042
:100A200002C08FEF9FEFDF91CF9108951F920F9239
:100A30000FB60F9211242F933F934F935F936F93B1
:100A40007F938F939F93AF93BF93EF93FF938CE527
:100A500093E00E94D801FF91EF91BF91AF919F91D8
:100A60008F917F916F915F914F913F912F910F9057
:100A70000FBE0F901F9018951F920F920FB60F92F6
:100A800011242F938F939F93EF93FF93E0916C0327
:100A9000F0916D038081E0917203F091730382FD08
:100AA00012C09081809175038F5F8F7320917603C0
:100AB000821751F0E0917503F0E0E45AFC4F958FF6
:100AC0008093750301C08081FF91EF919F918F9179
:100AD0002F910F900FBE0F901F9018951F920F929D
:100AE0000FB60F9211242F933F934F935F936F9301
:100AF0007F938F939F93AF93BF93EF93FF938091D7
:100B0000B900887F803609F49CC068F5883209F402
:100B10005BC090F4803109F454C038F4882309F4A0
:100B2000F6C0883009F44DC0F6C0883109F44CC0D5
:100B3000803209F45DC0EFC0803409F468C048F425
:100B4000803309F455C0883309F0E5C08093D7029B
:100B5000D8C0803509F44FC0883509F45DC08834A9
:100B600009F0D9C0D6C0883909F4C7C0A8F48837BD
:100B700009F467C038F4883609F463C0803709F493
:100B800060C0C9C0883809F4B8C0803909F45FC0B2
:100B9000803809F0C0C05BC0803B09F486C038F4DF
:100BA000803A09F466C0883A09F47FC0B4C0803C3A
:100BB00009F4A7C0883C09F4A4C0883B09F48AC0A2
:100BC000AAC08091B40210C09091D6028091D50243
:100BD000981770F5E091D60281E08E0F8093D602CF
:100BE000F0E0EB54FD4F80818093BB0085EC86C024
:100BF0008093D7028EC0E091D60281E08E0F809361
:100C0000D6028091BB00F0E0EB54FD4F80839091C1
:100C1000D6028091D5026EC0E091D60281E08E0F9F
:100C20008093D6028091BB00F0E0EB54FD4F8083AF
:100C30008091D80281116DC081E08093B30284EA73
:100C400061C083E08093D9021092A802CFCF809137
:100C5000A802803208F051C0E091A80281E08E0F16
:100C60008093A8028091BB00F0E0E857FD4F80839D
:100C7000BDCF85EC8093BC001092D9028091A80270
:100C8000803230F4E091A802F0E0E857FD4F108286
:100C90006091A80270E0E0918602F091870288E8F6
:100CA00092E009951092A80236C084E08093D902A0
:100CB0001092850210928402E0918202F0918302E8
:100CC000099580918402811105C081E0809384029E
:100CD00010926202E091850281E08E0F809385027E
:100CE000F0E0EE59FD4F80818093BB00909185022A
:100CF00080918402981708F479CF85E88093BC002E
:100D00000AC085EC8093BC001092D90204C01092F6
:100D1000D7020E94A702FF91EF91BF91AF919F91DF
:100D20008F917F916F915F914F913F912F910F9094
:100D30000FBE0F901F901895AF92BF92CF92DF9287
:100D4000EF92FF920F931F93CF93DF9300D01F92E8
:100D5000CDB7DEB75C0128E5A20EB11CF5012081FC
:100D60002F3FE1F026E62983319620812A833997A7
:100D7000CC24C394D12CCE0103967C0100E010E07A
:100D800020E030E042E050E0BE016F5F7F4F8081A5
:100D900091810E94720C8FEFF50180830F900F906C
:100DA0000F90DF91CF911F910F91FF90EF90DF9007
:100DB000CF90BF90AF9008956F927F928F929F9245
:100DC000AF92BF92CF92DF92EF92FF920F931F9359
:100DD000CF93DF93CDB7DEB727970FB6F894DEBF7A
:100DE0000FBECDBF5C018B01D42EFC011382128299
:100DF00088EE93E0A0E0B0E084839583A683B78378
:100E000080E291E0918380833501F0E56F0E711CE3
:100E1000F301318320837501F2E5EF0EF11CF70138
:100E200011821082138212821582148240E050E0F7
:100E300066EE71E0C7010E94780F4501F8E58F0E5C
:100E4000911CF401D0820115110569F0F80101909F
:100E50000020E9F73197AF01401B510BB801C701E2
:100E60000E94780F03C0C7010E942F0F82E7898379
:100E700087E78A8381E68B8386E48E83F401808111
:100E8000FE01E80FF11D81818F8381E090E0F50183
:100E900097878687EA5AFF4F00811181F7012081E9
:100EA000318182E0C82ED12CCE0104967C0142E033
:100EB00050E0BE016A5F7F4FF301808191810E9403
:100EC000720C8C81882321F08FEFF401808307C09E
:100ED000F501E75AFF4F8D818083F501148627962F
:100EE0000FB6F894DEBF0FBECDBFDF91CF911F913B
:100EF0000F91FF90EF90DF90CF90BF90AF909F90B9
:100F00008F907F906F900895CF93DF93EC018D8148
:100F10009E81DC01ED91FC910084F185E02D099525
:100F20001816190654F48D819E81DC01ED91FC9117
:100F30000284F385E02D0995EACFDF91CF910895E2
:100F40008F929F92AF92BF92CF92DF92EF92FF92D9
:100F5000CF93DF93EC018FB7F894809029049090A1
:100F60002A04A0902B04B0902C048FBF6B01E12CBD
:100F7000F12C8D819E81DC01ED91FC910284F38541
:100F8000E02D099597FF16C02FB7F894809129049A
:100F900090912A04A0912B04B0912C042FBF8819A2
:100FA0009909AA09BB098C159D05AE05BF0508F373
:100FB0008FEF9FEFDF91CF91FF90EF90DF90CF9079
:100FC000BF90AF909F908F900895FC012381348152
:100FD0002627022E2295207F2025032E322F2295B0
:100FE0002F700226269532272327220F220F220F49
:100FF00020253483238308950F931F93CF93DF938A
:101000008B01EA0191E09093DA029DE19093FC025A
:101010001092DB021092FD02682F8EE493E00E9492
:101020003503019771F4AE01B8018EE493E00E949C
:1010300005038C179D0741F481E00E943C0990E074
:1010400005C08CEE9FEF02C08BEE9FEFDF91CF913A
:101050001F910F910895EF92FF920F931F93CF93DB
:10106000DF93D62FC72F7A0191E09093DA029DE1AA
:101070009093FC021092DB021092FD02682F8EE426
:1010800093E00E943503019709F068C080E00E9458
:101090003C09282F30E02115310509F061C080910D
:1010A000D9028111FCCF8E2D813208F080E291E0CF
:1010B0009093D9029093D8022FEF2093D7021092E9
:1010C000D602280F2093D5029093B4029091B402D7
:1010D0009A639093B4029091B302913061F41092AC
:1010E000B3029091B4029093BB009091BC0093FD29
:1010F000F8CF95EC01C095EE9093BC009091D90289
:101100009130E1F39091D602981710F48091D602B5
:10111000A5EBB2E022E432E0F9019E2F921B981772
:1011200018F49D919193F9CF1092AA028093A9028D
:101130000D2F1C2FC0E0D0E09091A9028091AA024F
:10114000981781F0CE15DF056CF421968EE493E0BC
:101150000E94E902F80181938F01EECF86EF06C06D
:10116000C90108C0CE15DF0519F085EF9FEF02C059
:1011700080E090E0DF91CF911F910F91FF90EF9071
:101180000895CF92DF92EF92FF920F931F93CF9328
:10119000DF93CDB7DEB727970FB6F894DEBF0FBE4B
:1011A000CDBF6C017B018A0141E050E0BE01695F67
:1011B0007F4F89E090E00E942B082F8120FD03C023
:1011C000009791F333C0009789F546E050E0BE01E7
:1011D0006F5F7F4F80E090E00E942B08009731F511
:1011E0008A8181FF02C08C6F01C083708A839C81D9
:1011F00091FF02C09C6F01C093709C839E8191FF00
:1012000002C09C6F01C093709E8389819A81F60110
:10121000918380838B819C81F701918380838D8171
:101220009E81F8019183808380E090E027960FB63D
:10123000F894DEBF0FBECDBFDF91CF911F910F910C
:10124000FF90EF90DF90CF900895CF93DF93EB0165
:10125000209779F0C130D10521F4009741F0019732
:1012600008C0219761E070E00E942509F1CF8FE06E
:1012700090E0DF91CF910895382F2091FD02909159
:10128000FC02213208F049C08091D9028111FCCFC3
:1012900042E04093D9023093D8023FEF3093D70217
:1012A0001092D6022093D502ACEDB2E045EB52E0AD
:1012B000FA013E2F341B321718F43D913193F9CFC8
:1012C0001092B4022091B402990F922B9093B40221
:1012D0009091B302913061F41092B3029091B402F4
:1012E0009093BB009091BC0093FDF8CF95EC01C0AA
:1012F00095EE9093BC009091D9029230E1F39091D9
:10130000D7029F3F79F08091D702803241F08091DF
:10131000D702803331F084E005C081E003C082E071
:1013200001C083E01092DB021092FD021092DA02FB
:1013300008958F929F92AF92BF92CF92DF92EF92D9
:10134000FF9220910604309107048217930708F05A
:1013500052C04B01AA24BB24E82DC52ED62EE72E61
:10136000FF24FC2D342F20910B04222361F0829E58
:1013700040011124E92DC29E60011124FD2D429FE0
:10138000D00111243B2FF0901104E0900E04A091A5
:101390000C04B0910D04FE1008C0AC01440F551FA1
:1013A000840F951F8A0F9B1F14C0880F991F880FE9
:1013B000991F8A0F9B1F472F552766277727DC0128
:1013C000AF0DB11D222321F0429FA0011124452F12
:1013D0004C9320910E04DC01A20FB11DEC932091DF
:1013E0000F04DC01A20FB11DFC9320911004FC013D
:1013F000E20FF11D3083FF90EF90DF90CF90BF9010
:10140000AF909F908F900895CF93DF93EC0141E0D0
:1014100050E064E372E00E94010F811103C0CE012D
:101420000E942F0FCE01DF91CF9108958F929F924E
:10143000AF92BF920F931F93CF93DF93CDB7DEB7D9
:10144000A1970FB6F894DEBF0FBECDBF19A24230F0
:1014500008F44AE08E010F5D1F4F842E912CA12CC1
:10146000B12CA50194010E946B1FE62FB901CA019E
:1014700001501109EA3014F4E05D01C0E95CD801C3
:10148000EC93232B242B252B61F7B8018EEF92E0F0
:101490000E94A812A1960FB6F894DEBF0FBECDBF72
:1014A000DF91CF911F910F91BF90AF909F908F9040
:1014B00008954F925F926F927F928F929F92AF9218
:1014C000BF92CF92DF92EF92FF92CF936B017C019C
:1014D0009B01AC010E94661F882319F066E372E04D
:1014E00027C046015701E894B7F82FEF3FEF4FE7C9
:1014F0005FE7C501B4010E94661F81110DC02FEF87
:101500003FEF4FE75FE7C501B4010E946A1D18165F
:101510001CF46AE372E00CC02FEF3FEF4FE75FE48B
:10152000C701B6010E94611F18169CF46EE372E0B9
:101530008EEF92E0CF91FF90EF90DF90CF90BF9031
:10154000AF909F908F907F906F905F904F900C9492
:10155000A8122FEF3FEF4FE75FECC701B6010E94E3
:101560006A1D87FDE3CF20E030E0A901C701B60185
:101570000E946A1D87FF0BC06DE28EEF92E00E9411
:101580007D125C01F7FAF094F7F8F09402C0A12CF8
:10159000B12C2EE632E143E05AE3C701B6010E94C6
:1015A000C61E2B013C010E94321F6B017C010E9470
:1015B0006F1D9B01AC01C301B2010E94C51E2B012E
:1015C0003C014AE0C701B6010E94160A7C01EA0C00
:1015D000FB1C6EE28EEF92E00E947D12E80EF91E77
:1015E000C4E0C15019F120E030E040E251E4C30111
:1015F000B2010E94D01D2B013C010E94321F4B0101
:10160000A12CB12C4AE0C501B4010E94160AE80ED3
:10161000F91EC501B4010E946F1D9B01AC01C301FD
:10162000B2010E94C51E2B013C01DBCFC701CF9147
:10163000FF90EF90DF90CF90BF90AF909F908F90F2
:101640007F906F905F904F900895FC018091B2025F
:10165000811103C08FEF9FEF08959FB7F89482E048
:101660008093E9002091F20030E01216130614F482
:1016700021E030E02115310559F0289884E6809367
:10168000B1028091F10080838091F200882319F0EB
:101690009FBFC90108958BE68093E800F9CF2FB76B
:1016A000F89483E08093E9009091E800892F80729C
:1016B00095FF04C09091F20080E4891B2FBF08952C
:1016C00080911D0481110DC082E08093190484E093
:1016D00080931A0410921C0410921B0481E08093E2
:1016E0001D0489E194E00895362F90E0FC01E25159
:1016F000FE4F4491FC01E35FFD4F2491FC01E65C49
:10170000FD4F8491882309F451C04423E1F150E056
:10171000FA013197EF30F105B0F5EA5AFF4F0C941A
:101720008D1F909180009F7707C0909180009F7DD2
:1017300003C090918000977F9093800024C094B55F
:101740009F7702C094B59F7D94BD1DC0909190007D
:101750009F7707C0909190009F7D03C0909190006B
:10176000977F909390000FC09091C0009F7703C027
:101770009091C0009F7D9093C00005C09091C200E1
:10178000977F9093C200E82FF0E0EE0FFF1FE45D1B
:10179000FD4FA591B4918FB7F894EC91311103C02E
:1017A00020952E2301C02E2B2C938FBF0895CF930D
:1017B000DF9390E0FC01E35FFD4F2491FC01E65CC8
:1017C000FD4F8491882361F190E0880F991FFC01FF
:1017D000E052FE4FC591D491FC01E45DFD4FA5910F
:1017E000B491611109C09FB7F89488812095822334
:1017F0008883EC912E230BC0623061F49FB7F8947C
:101800003881822F809583238883EC912E2B2C9313
:101810009FBF06C08FB7F894E8812E2B28838FBF17
:10182000DF91CF9108953FB7F8948091AD029091E8
:10183000AE02A091AF02B091B00226B5A89B05C040
:101840002F3F19F00196A11DB11D3FBFBA2FA92F3F
:10185000982F8827820F911DA11DB11DBC01CD01BC
:1018600042E0660F771F881F991F4A95D1F70895A8
:101870008F929F92AF92BF92CF92DF92EF92FF92A0
:101880006B017C010E94130C4B015C01C114D1045B
:10189000E104F104F1F00E94130CDC01CB01881982
:1018A0009909AA09BB09883E9340A105B10570F3C7
:1018B00021E0C21AD108E108F10888EE880E83E021
:1018C000981EA11CB11CC114D104E104F10419F744
:1018D000DDCFFF90EF90DF90CF90BF90AF909F90C3
:1018E0008F9008952F923F924F925F926F927F92C6
:1018F0008F929F92AF92BF92CF92DF92EF92FF9220
:101900000F931F93CF93DF93CDB7DEB72B970FB60F
:10191000F894DEBF0FBECDBF9B878A875B0119019C
:10192000FD82EC823A01600E711E872C7B82912C25
:1019300044244A94542C9B01240F351F3F832E834B
:101940009101200F311F39872887EA85FB85808523
:10195000981608F036C1AA85BB8514965C924E9203
:10196000139715968D919C911697DC01ED91FC9142
:101970000190F081E02D6FEF09956FEF8A859B85CF
:101980000E94E507EA85FB8585819681DC01ED9162
:10199000FC910190F081E02DAA85BB856C910995A1
:1019A000EA85FB856081CF010E94E507AA85BB859A
:1019B00015968D919C911697DC01ED91FC9101900B
:1019C000F081E02D682D09956B818A859B850E94A9
:1019D000E507EA85FB8585819681DC01ED91FC9127
:1019E0000190F081E02D662D0995662D8A859B85F5
:1019F0000E94E50775012E813F81E216F306B1F0E2
:101A0000EA85FB85858196818701DC01ED91FC915A
:101A10000190F081E02DD7016D917D010995F801CC
:101A200060818A859B850E94E507E5CF7101AA85C3
:101A3000BB8515968D919C91169728853985E21660
:101A4000F30691F08701DC01ED91FC910190F081AA
:101A5000E02DD7016D917D010995F80160818A859E
:101A60009B850E94E507E3CFDC01ED91FC91AA85FF
:101A7000BB8514966C910190F081E02D0995EA8563
:101A8000FB8585819681DC01ED91FC910190F081CF
:101A9000E02DAA85BB8513966C91099564E670E0EC
:101AA0008A859B850E94A0078F3F910509F07DC024
:101AB000EA85FB85548243826FEFCF010E94E507E0
:101AC00065E070E08A859B850E94A007AA85BB859A
:101AD0006C91262F30E08217930709F066C0CD0184
:101AE0000E94E5076AE070E08A859B850E94A00756
:101AF0007C0197FD5AC0682F8A859B850E94E50767
:101B00006AE070E08A859B850E94A0078C0197FDA2
:101B10004CC0682F8A859B850E94E507EA8219825E
:101B2000E981FA810E0F1F1FE12CF12C65E070E0B6
:101B30008A859B85E016F106A9F0EC14FD0491F06E
:101B40000E94A00797FD0AC0EC81FD81EE0DFF1DEC
:101B50008083682F8A859B850E94E507FFEFEF1A37
:101B6000FF0AE4CF0E94A0077C0197FD1EC065E03C
:101B700070E08A859B850E94A00797FD16C0FE2C09
:101B8000EE248E0D9F1DAA85BB8513962D913C9149
:101B900014972817390749F48C918F5F8C93C801EB
:101BA000C016D10680F4C6010EC0939464E670E0BE
:101BB00080E090E00E94380C8A859B850E94840713
:101BC000C4CE8FEF9FEF2B960FB6F894DEBF0FBEFB
:101BD000CDBFDF91CF911F910F91FF90EF90DF90DC
:101BE000CF90BF90AF909F908F907F906F905F90BD
:101BF0004F903F902F90089540912F0450913004C2
:101C000020912D0430912E0442175307B4F4909183
:101C1000E8009570E1F39091E80092FD19C080937F
:101C2000F10080912F049091300401968F739927D1
:101C3000892B19F48EEF8093E80080912F04909106
:101C4000300401969093300480932F0481E008952E
:101C500080E00895DF92EF92FF920F931F93CF934E
:101C6000DF93D82E8A017B01E40EF51EEB01CE1521
:101C7000DF0571F0D7FE03C0FE01849101C08881A9
:101C80000E94FC0D21968111F2CF8FEF9FEF01C0D2
:101C9000C801DF91CF911F910F91FF90EF90DF90DE
:101CA0000895615030F02091F100FC0120830196ED
:101CB000F8CF289884E68093B10208950F931F937C
:101CC000CF93DF93EC0188819981009729F02A81D5
:101CD0003B812617370788F48B016F5F7F4F0E9487
:101CE000C020009761F0998388831B830A832C812D
:101CF0003D81232B11F4FC01108281E001C080E0C2
:101D0000DF91CF911F910F9108950F931F93CF9360
:101D1000DF931F92CDB7DEB782E0898342E450E0C3
:101D200069E572E080E80E942A0E0E94600BDC01E7
:101D300012960D911C9113970115110569F0D801A8
:101D4000ED91FC910280F381E02DBE016F5F7F4F2A
:101D5000C801099597FF07C089810F90DF91CF9146
:101D60001F910F910895F80100851185E5CF1F920D
:101D70000F920FB60F9211242F933F938F939F933F
:101D8000AF93BF938091290490912A04A0912B04D2
:101D9000B0912C043091310423E0230F2D3720F42F
:101DA0000196A11DB11D05C026E8230F0296A11DB5
:101DB000B11D209331048093290490932A04A093A9
:101DC0002B04B0932C048091AD029091AE02A091AF
:101DD000AF02B091B0020196A11DB11D8093AD027A
:101DE0009093AE02A093AF02B093B002BF91AF91B7
:101DF0009F918F913F912F910F900FBE0F901F9049
:101E00001895EF92FF920F931F93CF93DF93FC01EE
:101E1000248135816115710511F480E019C04115E7
:101E20005105A9F07B01EC018A01020F131FB801D3
:101E30000E945E0E882389F3288139818C819D81DF
:101E4000B701820F931F0E9498211D830C8381E0AC
:101E5000DF91CF911F910F91FF90EF900895CF9355
:101E6000DF93EC0188819981009711F00E9428206E
:101E7000198218821D821C821B821A82DF91CF91E7
:101E80000895EF92FF920F931F93CF93DF93CDB7F7
:101E9000DEB764970FB6F894DEBF0FBECDBF7C01EE
:101EA000CB01BA018E010F5F1F4F22E044E00E9478
:101EB0008D1AFC0101900020E9F73197AF01481B12
:101EC000590BBC01C7010E94010F811103C0C7015A
:101ED0000E942F0FC70164960FB6F894DEBF0FBEA5
:101EE000CDBFDF91CF911F910F91FF90EF9008959B
:101EF000EF92FF920F931F93CF93DF93EC017B013F
:101F00008A01BA010E945E0E811104C0CE010E94B6
:101F10002F0F07C01D830C83B701888199810E9410
:101F20009821CE01DF91CF911F910F91FF90EF90FB
:101F30000895CF93DF93EC01FB018617970761F0BB
:101F4000608171816115710529F0448155810E947C
:101F5000780F02C00E942F0FCE01DF91CF9108951C
:101F60001F920F920FB60F9211248F939F9380911F
:101F7000E1009091E100937F9093E10083FF0FC017
:101F80001092E90091E09093EB001092EC0092E344
:101F90009093ED001092B20298E09093F00082FFCF
:101FA00020C093E09093E9009091F200992319F0FA
:101FB0009AE39093E80090912804992339F0909146
:101FC0002804915090932804992389F19091B102AB
:101FD000992339F09091B10291509093B1029923D5
:101FE00041F184FF10C08091E2008E7E8160809379
:101FF000E2008091E1008F7E8093E10080912704D0
:102000008E7E806111C080FF16C08091E2008E7EBE
:1020100080618093E2008091E1008E7E8093E100F8
:10202000809127048E7E81608093270404C05D9A8E
:10203000CDCF289AD6CF9F918F910F900FBE0F9042
:102040001F9018951F920F920FB60F921124CF92E6
:10205000DF92EF92FF920F931F932F933F934F9333
:102060005F936F937F938F939F93AF93BF93EF9300
:10207000FF93CF93DF93CDB7DEB76C97DEBFCDBFB5
:102080001092E9008091E80083FFEDC168E0CE0185
:1020900045960E94510E82EF8093E8008D8987FF5C
:1020A00005C09091E80090FFFCCF03C09EEF909395
:1020B000E800982F907609F0C6C09E892F89188D68
:1020C00091110CC0803829F4809126048093F1008E
:1020D00002C01092F1001092F10048C1422F50E06E
:1020E000512B913051F4811141C14130510509F01A
:1020F0003DC1809126048D7F0BC0933061F4811126
:1021000035C14130510509F031C18091260482600A
:10211000809326042BC1953041F48091E80080FF24
:10212000FCCF20682093E30021C1963009F05FC006
:10213000EB8CFC8C1092E9001092300410922F046A
:10214000123091F510922E0410922D040E94850EEB
:1021500099E0BE016F5F7F4FDB01E92F1D92EA9589
:10216000E9F799831A8391E09E8390EA98879AEF22
:10217000998720912F0430913004275F3F4F3C8393
:102180002B838D831092E9001092300410922F045B
:10219000F0922E04E0922D0449E050E080E00E948D
:1021A0002A0E0E94850EE2C0F0922E04E0922D04C9
:1021B0000E94600BDC011296ED90FC901397E114E5
:1021C000F10409F4C0C0D701ED91FC910480F581C0
:1021D000E02DBE016B5E7F4FC7010995009719F096
:1021E0000CF0C4C0C7C0F701E084F184E8CF973099
:1021F00009F4C0C0983021F481E08093F100B6C0AA
:10220000993009F0B3C0837009F0B4C0E3E8F1E09D
:1022100081E021E036E39081992361F08093E90029
:102220002093EB0091919093EC003093ED008F5F41
:10223000873089F78EE78093EA001092EA008F8951
:102240008093B20293C08B8D9C8D1092E900109206
:10225000300410922F0490932E0480932D04898DC6
:10226000811156C08E899D89913A59F4813209F0C5
:1022700081C047E050E064E071E080E00E942A0EF7
:1022800075C0913209F076C0833289F4888D90E070
:10229000982F88272F89822BA0E0B0E0809300013F
:1022A00090930101A0930201B09303015FC08032BB
:1022B00069F48091E80082FFFCCF67E084E091E060
:1022C0000E94510E8BEF8093E80006C0823209F025
:1022D0004DC08F8980930B0180912504882319F0CC
:1022E000EEEFFAE002C0E0E0F8E0809104019091A6
:1022F0000501A0910601B0910701803B9440A10522
:10230000B10509F07BC080910B0180FF93C076C0BE
:102310000E94600BDC0112960D911C911397011520
:10232000110541F1D801ED91FC910190F081E02D72
:10233000BE016B5E7F4FC8010995811117C0F8017E
:1023400000851185ECCF113009F44EC0133091F4A3
:102350008F89882309F445C0823081F440E86BE01E
:102360008DEB92E00E94501A882321F08EEF80932B
:10237000E80079C081E28093EB0075C0813029F4D8
:1023800040E86BE081EB92E0EDCF833099F70E945B
:10239000600BDC011296ED90FC9013978E010F5F9D
:1023A0001F4F6801E114F10479F0D701ED91FC9120
:1023B0000680F781E02DB801C7010995080F111DAE
:1023C000F701E084F184EECFD8011C92F601019070
:1023D0000020E9F73197BF016C197D0940E0C60183
:1023E000C1CF6BE972E002C06FE972E0611571055F
:1023F00009F2FB01449150E080E840CF0FB6F89419
:10240000A8958091600088618093600010926000C0
:102410000FBEA895EE3F2AE0F20739F08091FE0A40
:102420009091FF0A91838083A1CF1092FF0A1092AE
:10243000FE0A9CCFEE3F8AE0F80731F0808191815F
:102440009093FF0A8093FE0A87E797E79183808342
:102450009BE088E10FB6F894A895809360000FBECA
:102460009093600083CF6C960FB6F894DEBF0FBEDA
:10247000CDBFDF91CF91FF91EF91BF91AF919F9130
:102480008F917F916F915F914F913F912F911F910C
:102490000F91FF90EF90DF90CF900F900FBE0F90B5
:1024A0001F901895CF92DF92EF92FF920F931F9398
:1024B000CF93DF936C017A018B01C0E0D0E0CE15A1
:1024C000DF0589F0D8016D918D01D601ED91FC9168
:1024D0000190F081E02DC6010995892B11F47E0150
:1024E00002C02196ECCFC701DF91CF911F910F91D0
:1024F000FF90EF90DF90CF900895DC01ED91FC917B
:102500000190F081E02D0994EF92FF920F931F93B9
:10251000CF93DF938C017B01C0E0D0E0F701EC0F9B
:10252000FD1F6491662361F0D801ED91FC9101904B
:10253000F081E02DC8010995892B11F02196EECF8D
:10254000CE01DF91CF911F910F91FF90EF900895F1
:102550006115710579F0FB0101900020E9F73197D1
:10256000AF01461B570BDC01ED91FC910280F3811A
:10257000E02D099480E090E008950F931F93CF938E
:10258000DF93EC010E94A8128C0164EE71E0CE0191
:102590000E94A812800F911FDF91CF911F910F9180
:1025A000089580910C0490910D04009711F00E9401
:1025B000282080910A0487FD03C060E00C94D70BAB
:1025C0000895CF93DF93CDB7DEB7C258D1090FB6C8
:1025D000F894DEBF0FBECDBF789484B5826084BD11
:1025E00084B5816084BD85B5826085BD85B5816017
:1025F00085BD80916E00816080936E001092810095
:10260000809181008260809381008091810081604F
:102610008093810080918000816080938000809110
:1026200091008260809391008091910081608093FD
:102630009100809190008160809390008091C10012
:1026400084608093C1008091C10082608093C1004A
:102650008091C10081608093C1008091C30081603E
:102660008093C3008091C00082608093C0008091FD
:10267000C20081608093C20080917A008460809360
:102680007A0080917A00826080937A0080917A004B
:10269000816080937A0080917A00806880937A00CC
:1026A0001092B20210922604109227048091D70053
:1026B00081608093D70080EA8093D80089B58061DB
:1026C00089BD89B5826089BD09B400FEFDCF61E096
:1026D00070E080E090E00E94380C8091D8008F7C00
:1026E00080618093D8008091E000807F8093E0003B
:1026F0008091E1008E7E8093E1008DE08093E20086
:10270000559A209AEEEFFFE7859194918B3F9C4D6F
:1027100019F481E08093250468EE73E080E090E096
:102720000E94380CE0910204F0910304A089B18961
:1027300082E08C93A485B5851C92A685B78587E039
:102740008C93108EA489B58986E08C93A289B38975
:102750008C9180618C93A289B3898C9188608C93D1
:10276000A289B3898C9180688C930288F389E02DCB
:1027700080818F7D8083809100048111D4C081E0AD
:102780008093000489EF93E00E94840768EE73E071
:1027900080E090E00E94380C8091FE039091FF034E
:1027A000DC01ED91FC910084F185E02D099518166E
:1027B000190644F315E0B12EAA24A39402E3902E47
:1027C000E2E1F1E0DE01A55ABF4F8B2D01900D92A1
:1027D0008A95E1F7A0920104C12CD12CE12CF12CB7
:1027E00000E010E020E030E045E050E0BE01655A36
:1027F0007F4F89EF93E00E94720C63E08091FE03AB
:102800009091FF030E947D126AEF70E080E090E0FB
:102810000E94380C62ED71E08091FE039091FF03FD
:102820000E9484126AEF70E080E090E00E94380C11
:1028300060ED71E08091FE039091FF030E9484128D
:1028400064EF71E080E090E00E94380C64EC71E08D
:102850008091FE039091FF030E94841264EF71E067
:1028600080E090E00E94380C89EF93E00E9484079A
:10287000E7E1F1E0DE0111968B2D01900D928A9532
:10288000E1F790920104B4E0CB2ED12CFE01E8597F
:10289000FF4F7F0120E030E045E050E0BE016F5F78
:1028A0007F4F89EF93E00E94720C8F3FFFEF9F07ED
:1028B00039F468EE73E080E090E00E94380C80CF3D
:1028C000A9962FADA9972111FFCF049719F5AA96C4
:1028D0002FADAA9730E02053310984E6829FA001F2
:1028E000839F500D1124AB962FADAB9730E0205352
:1028F00031096AE0629FC001639F900D1124840F2B
:10290000951FAC962FADAC9730E020533109820F64
:10291000931F02C084E690E09093FB038093FA0338
:1029200082E3809301048FEF9FEF90930B038093DA
:102930000A0369E871E08EEF92E00E94BD1269EA35
:1029400071E08EEF92E00E94BD121092AA021092E6
:10295000A9021092DB021092FD021092D90281E0CE
:102960008093D8021092B30261E082E00E94740B5F
:1029700061E083E00E94740B8091B9008E7F8093A8
:10298000B9008091B9008D7F8093B90088E480936D
:10299000B80085E48093BC008DE0E7968FAFE797A1
:1029A00041E050E0BE016A587F4F86E190E00E940E
:1029B000FC078E01055A1F4F009709F0A8C041E09F
:1029C00050E0BE016C587F4F86E190E00E942B08DA
:1029D000009709F09CC0E7969FADE797E5968FAD0D
:1029E000E597981392C01E821D821C821B821A8258
:1029F000198246E050E0BE016F5F7F4F80E190E0BA
:102A00000E94FC07009709F082C064E670E080E055
:102A100090E00E94380CA801BE0168597F4FCE019A
:102A200082599F4F0E94C108009709F070C0E0963C
:102A30008EAD9FADE097880F991F91958195910973
:102A40009A838983AA968EAD9FADAA97880F991F06
:102A50009195819591099C838B83D8018D919C914F
:102A6000880F991F91958195910980589F4F9E835A
:102A70008D8346E050E0BE016F5F7F4F80E190E0C4
:102A80000E94FC07009709F042C068EC70E080E00B
:102A900090E00E94380CA801BE0168597F4FCE011A
:102AA00082599F4F0E94C108009789F5E0962EAD8C
:102AB0003FADE097220F331F89819A81821B930BD0
:102AC0009A838983AA962EAD3FADAA97220F331F12
:102AD0008B819C81821B930B9C838B838D819E8138
:102AE00080589F4FF80120813181220F331F821BB4
:102AF000930B9E838D8346E050E0BE016F5F7F4F56
:102B000080E190E00E94FC0702C08DE99FEF892BD5
:102B100019F462EB71E002C066EC71E08EEF92E0B6
:102B20000E94BD1241E050E0B80189E090E00E94AF
:102B30002B086AED71E08EEF92E00E94A812D80196
:102B40006C9170E080E090E040E10E94160A64EE33
:102B500071E08EEF92E00E94A81241E050E0B801CF
:102B60008FE090E00E942B0867EE71E08EEF92E01C
:102B70000E94A812F801608170E080E090E040E1DE
:102B80000E94160A64EE71E08EEF92E00E94A81295
:102B900041E050E0B8018BE090E00E942B0861EF2B
:102BA00071E08EEF92E00E94A812D8016C9170E063
:102BB00080E090E04AE00E94160A64EE71E08EEF39
:102BC00092E00E94A81261E08DE00E94D70B8091F4
:102BD0000A0487FD08C061E00E94D70B60E0809185
:102BE0000A040E94740B81E08093050429EF33E00E
:102BF00042E069EF71E0CE0101960E94DC066A9620
:102C00008FAD6A978F3FB9F064EE71E0CE01019607
:102C10000E94A81264EE71E0CE0101960E94A812F3
:102C20006AE072E0CE0101960E94BD12CE010196CB
:102C30000E949C0606C066E172E08EEF92E00E9460
:102C4000BD1280E291E09A838983CE0101960E94B1
:102C50009C067E01B3E5EB0EF11CF70180819181AA
:102C60000E94282029EF33E042E069EF71E0CE01B5
:102C700001960E94DC06E0961FAE1EAEE097E2963B
:102C80001FAE1EAEE297E4961FAE1EAEE49740E084
:102C900050E066EE71E0CE0182599F4F0E94780F9E
:102CA0006A968FAD6A978F3F09F49DC18FB7F894EC
:102CB000C0902904D0902A04E0902B04F0902C04BA
:102CC0008FBF4AE0C701B6010E94160A64E372E0B2
:102CD0008EEF92E00E94A812AA961FAE1EAEAA978F
:102CE000AC961FAE1EAEAC97AE961FAE1EAEAE97A4
:102CF000BE0162597F4FCE0188599F4F0E94990FA4
:102D00002AE0A801C701B6010E94B81AF801019093
:102D10000020E9F73197AF01401B510BB801CE01FC
:102D200088599F4F0E94010F811105C0CE0188591B
:102D30009F4F0E942F0FCE0188599F4F0E94040A77
:102D4000BC01CE0182599F4F0E94990FAA968EAD69
:102D50009FADAA970E942820E8961FAE1EAEE89766
:102D6000EA961FAE1EAEEA97EC961FAE1EAEEC972B
:102D7000AE014A585F4FBE0168587F4FCE0186585A
:102D80009F4F0E94C108EC966EAD7FADEC97072E69
:102D9000000C880B990B0E94711D20E030E040E888
:102DA0005CE30E94D01D2B013C01EA966EAD7FAD25
:102DB000EA97072E000C880B990B0E94711D20E0EA
:102DC00030E040E85CE30E94D01D4B015C01E896D6
:102DD0006EAD7FADE897072E000C880B990B0E9413
:102DE000711D20E030E040E85CE30E94D01D6B01E3
:102DF0007C01C301B2010E94590A64E372E08EEFC4
:102E000092E00E94A812C501B4010E94590A64E32D
:102E100072E08EEF92E00E94A812C701B6010E94F4
:102E2000590A64E372E08EEF92E00E94A812D80182
:102E300011961C921E9213961C921E921297159632
:102E40001C921E921497BE0162597F4FC8010E94C6
:102E5000990FB301A201C8010E94410F0E94040A08
:102E6000B501A4010E94410F0E94040AB701A60106
:102E70000E94410F0E94040ABC01CE0182599F4F5B
:102E80000E94990FF801808191810E9428202DECE9
:102E90003CEC4CE45FE3C701B6010E946A1D87FF6A
:102EA00002C061E001C060E08DE00E94740BE5EDBE
:102EB000F1E0849190917B0083FB222420F8312C57
:102EC000910145E0220F331F4A95E1F79F7D292BA1
:102ED00020937B008770806480937C0080917A00CF
:102EE000806480937A0080917A0086FDFCCFE09028
:102EF000780080917900F12CF82A47010F2C000C02
:102F0000AA08BB08F7FE0EC06DE28EEF92E00E94A9
:102F10007D1266277727CB01681979098A099B09F1
:102F20004AE003C04AE0C501B4010E94160AAA960D
:102F30001FAE1EAEAA97AC961FAE1EAEAC97AE9655
:102F40001FAE1EAEAE97BE0162597F4FCE018859AB
:102F50009F4F0E94990F4AE0B801C7010E94AD1A25
:102F6000F80101900020E9F73197AF01401B510BA8
:102F7000B801CE0188599F4F0E94010F811105C0F1
:102F8000CE0188599F4F0E942F0FCE0188599F4F25
:102F90000E94040ABC01CE0182599F4F0E94990FE2
:102FA000AA968EAD9FADAA970E94282064E372E096
:102FB0008EEF92E00E94BD12E4964EAD5FADE497B5
:102FC000E0966EAD7FADE097CE0101960E944C0475
:102FD00064EE71E0CE0101960E94A812CE01019626
:102FE0000E949C0606C066E172E08EEF92E00E94AD
:102FF000BD12E090AB02F090AC0260E070E0C7015F
:103000000E94250947E057E067E070E00E949909B7
:1030100061E070E0C7010E9425094EE15EE16EE1CA
:1030200070E00E94990962E070E0C7010E942509E2
:1030300048E758E768E770E00E94990963E070E0AC
:10304000C7010E9425094EE15EE16EE170E00E9439
:10305000990964E070E0C7010E94250947E057E044
:1030600067E070E00E94990965E070E0C7010E9486
:10307000250940E050E0BA010E94990980910C04B2
:1030800090910D04892B09F404C10E94130CC09087
:103090001204D0901304E0901404F0901504DC01A5
:1030A000CB018C199D09AE09BF098C329140A10555
:1030B000B10558F3F8948091080490910904E696BC
:1030C0009FAF8EAFE697E0910C04F0910D04DF0105
:1030D00011968081CE57DF4F8883C258D04090919F
:1030E0000404E0911604F0911704809118049923C8
:1030F00009F458C09081982BCF57DF4F9883C1585F
:10310000D040908180958923C058DF4F8883C05874
:10311000D040C058DF4F8881C058D040EE968FAF66
:10312000EE9788E0ED968FAFED97CF57DF4F588140
:10313000C158D040C058DF4F6881C058D040CE57EA
:10314000DF4F4881C258D040ED963FADED97EE96E7
:103150002FADEE97E6968EAD9FADE697508347FD77
:10316000252F3A952083262F39F0441F00C00000F8
:103170006083000000C0F2CF38E04D916083000012
:10318000019761F7F0931704E0931604CE57DF4FD1
:103190004883C258D040ED963FAFED97EE962FAFE3
:1031A000EE9768C09081982BCF57DF4F9883C15816
:1031B000D040908180958923C058DF4F8883C058C4
:1031C000D040C058DF4F8881C058D040C158DF4F31
:1031D0008883CF57D04088E0EF968FAFEF97CF57D7
:1031E000DF4F5881C158D040C058DF4F6881C05868
:1031F000D040CE57DF4F4881C258D040EF963FAD08
:10320000EF97C158DF4F2881CF57D040E6968EAD5B
:103210009FADE697508347FD252F00C000C0208357
:1032200000C000C000C000C000C060830000262FA6
:103230003A9541F0441F000000C000C000C000C02B
:1032400000C0E8CF38E04D9100C0608300C0019716
:1032500009F7F0931704E0931604CE57DF4F488325
:10326000C258D040EF963FAFEF97C158DF4F288349
:10327000CF57D040E6969FAF8EAFE69778940E94E6
:10328000130C6093120470931304809314049093AE
:1032900015048091AB029091AC028F30910529F416
:1032A0001092AC021092AB0205C001969093AC0252
:1032B0008093AB02E0968EAD9FADE0970E942820F0
:1032C00080E291E09A838983CE0101960E949C0658
:1032D00065968EAD9FAD65970E9428200E94620280
:1032E000C1CC2CE533E010925F0310925E0388EEB0
:1032F00093E0A0E0B0E08093600390936103A0931B
:103300006203B093630342E351E050935D03409343
:103310005C034DEC50E050936903409368034CEC20
:1033200050E050936B0340936A0348EC50E0509395
:103330006D0340936C0349EC50E050936F0340934E
:103340006E034AEC50E050937103409370034EECCF
:1033500050E05093730340937203109275031092E0
:103360007603109277031092780310920103109263
:1033700000038093020390930303A0930403B0938C
:10338000050344E451E05093FF024093FE024FEFE7
:103390005FEF50930B0340930A0310925103109276
:1033A00050038093520390935303A0935403B0931C
:1033B000550386E591E090934F0380934E0389EF88
:1033C00093E090935B0380935A031092F903309338
:1033D000FF032093FE031092000410920104309327
:1033E0000304209302041092050410920B0410921F
:1033F000120410921304109214041092150481E028
:103400008093110480930E0410920F0492E0909325
:1034100010048093040480E390E090930904809367
:1034200008040E94931F90930D0480930C0400974E
:1034300061F020E3FC0111922A95E9F780E190E028
:10344000909307048093060408C010920904109218
:103450000804109207041092060486E080930A0480
:1034600080910504882341F061E086E00E94D70B3B
:1034700060E086E00E94740BE0E4F2E0E491F0E0AA
:10348000EE0FFF1FE45DFD4F85919491909317041B
:1034900080931604E3E1F2E0E491E09318040895C8
:1034A000CF92DF92EF92FF920F931F93CF93DF9310
:1034B0001F92CDB7DEB7182F062FE42E862F880F68
:1034C0008E5F99830E94FC0D83E00E94FC0DF12E1B
:1034D000C12E9981D92E8C2D8F19801798F4F60161
:1034E000E7FE02C0849101C080810E94FC0D182F6C
:1034F00080E00E94FC0D8123FFEFCF1ADF0A8111CB
:10350000EACF01C081E00F90DF91CF911F910F9121
:10351000FF90EF90DF90CF900895EF920F931F935D
:10352000CF93DF93E80147FD02C034E001C034E1EE
:10353000E42F440FFF0BF7FF03C0F195E195F1096C
:10354000E32E022F2E2FAE010E94F41ACE01DF913E
:10355000CF911F910F91EF900895BB274A3031F41E
:10356000992322F4BDE2909581959F4F0C94DB1A2C
:10357000BB27FA01A62F6217710581059105330B50
:1035800030FB66F0AA27660F771F881F991FAA1FB6
:10359000A21710F0A21B63953850A9F7A05DAA33BB
:1035A00008F0A95DA19336F7B111B1931082CA0159
:1035B0000C945A1DBB27FB015527AA27880F991F7A
:1035C000AA1FA41710F0A41B83955051B9F7A05D52
:1035D000AA3308F0A95DA193009779F7B111B193CF
:1035E0001192CB010C945A1D4F925F926F927F9271
:1035F0009F92AF92BF92CF92DF92EF92FF920F9382
:103600001F93CF93DF93CDB7DEB729970FB6F8940A
:10361000DEBF0FBECDBF6A01122FB02E2BE32017E5
:1036200020F0FF24F394F00E02C0BCE3FB2E0F2D1C
:1036300027E0AE014F5F5F4F0E94821CAC01898181
:10364000982F9970913031F0E1FC06C0E0FE06C081
:1036500090E205C09DE203C09BE201C090E0EE2D28
:10366000E07183FF3CC0911102C083E001C084E09F
:10367000811718F4212F281B01C020E0E1110BC095
:10368000F601822F30E2882319F031938150FBCF6D
:10369000C20ED11C20E0992329F0D6019C93F6019B
:1036A00031966F01C6010396E2FE0AC03EE4D601E0
:1036B0003C9341E411964C93119712963C9306C0AB
:1036C0003EE6F601308341E641833283FC01322F2E
:1036D00040E2332309F442C041933150FACF82FFD4
:1036E00044C0911102C083E001C084E0811718F446
:1036F000212F281B01C020E0E1110BC0F601822F11
:1037000030E2882319F031938150FBCFC20ED11CD7
:1037100020E0992329F0D6019C93F60131966F01A0
:10372000C6010396E2FE0BC039E4D6013C933EE4A9
:1037300011963C93119736E412963C9307C039E6F4
:10374000F60130833EE6318336E63283FC01322FC8
:1037500040E2332319F041933150FBCFFC01E20FDB
:10376000F11D10828EEF9FEFB7C0F1E0911101C003
:10377000F0E06F2F70E01416150624F49A012F5F05
:103780003F4F02C021E030E0260F371FBB2029F059
:103790006B2D70E06F5F7F4F02C060E070E0260F1E
:1037A000371F612F70E0261737071CF4121B212FDB
:1037B00001C020E03E2D387159F4D601322F60E26D
:1037C000332319F06D933150FBCFC20ED11C20E092
:1037D000FF2331F0D6019C93B6016F5F7F4F6B01E1
:1037E000E1110BC0F601922F30E3992319F03193C8
:1037F0009150FBCFC20ED11C20E09F2D940F3A8137
:10380000782F7071A72E84FF03C0313309F49150D3
:10381000191624F4993018F098E001C091E0E42FD3
:10382000852F57FF02C0E0E080E06E2F782FE0E0A8
:10383000F0E0AEE29A2E3A01691A71082A01461A9E
:10384000570A0B2D10E01195019511096F3F8FEF6D
:10385000780729F4D6019C92C60101966C0146179F
:10386000570784F0661677066CF47F01E40CF51CAC
:10387000A1E0B0E0AC0FBD1FEA0EFB1ED701119610
:10388000BC9002C090E3B92E615071093196C60117
:1038900001967C016017710724F0D601BC926C017F
:1038A000D5CF6417750741F4363320F4353321F44E
:1038B000A11002C081E3B82EF601B082F701822F79
:1038C00090E2882319F091938150FBCFF701E20F2A
:1038D000F11D108280E090E029960FB6F894DEBFCB
:1038E0000FBECDBFDF91CF911F910F91FF90EF9051
:1038F000DF90CF90BF90AF909F907F906F905F9040
:103900004F900895283008F027E03327DA01990F07
:10391000311D87FD916000966105710539F43260B3
:103920002E5F3D9330E32A95E1F708959F3F30F0F5
:1039300080387105610509F03C5F3C5F3D93913033
:1039400008F08068911DDF93CF931F930F93FF9230
:10395000EF92192F987F9695E92F96959695E90FF6
:10396000FF27EC5DFE4F99273327EE24FF24A701A4
:10397000E70105900894079428F4360FE71EF81E17
:10398000491F511D660F771F881F991F0694A1F7C5
:103990000590079428F4E70EF81E491F561FC11D15
:1039A000770F881F991F661F0694A1F7059007944B
:1039B00028F4F80E491F561FC71FD11D880F991FE5
:1039C000661F771F0694A1F70590079420F4490F0E
:1039D000561FC71FD81F990F661F771F881F069491
:1039E000A9F784911095177041F0D695C795579512
:1039F0004795F794E7941A95C1F7EAECF0E06894DC
:103A00001590159135916591959105907FE273958B
:103A1000E118F10A430B560BC90BD009C0F7E10CB2
:103A2000F11E431F561FC91FD01D7EF4703311F4C1
:103A30008A95E6CFE894015030F0080F0AF4002789
:103A4000021708F4202F2395022F7A3328F079E308
:103A50007D932A95E9F710C07D932A9589F60694FF
:103A600097956795379517951794E118F10A430BC9
:103A7000560BC90BD00998F023957E9173957A3334
:103A800008F070E37C932013B8F77E9170617D930A
:103A900030F0839571E37D9370E32A95E1F711246B
:103AA000EF90FF900F911F91CF91DF91992787FDA4
:103AB00090950895DC01FC01672F71917723E1F760
:103AC000329704C07C916D9370836291AE17BF07EB
:103AD000C8F308950E94AC1D08F481E00895E894AD
:103AE00009C097FB3EF490958095709561957F4F46
:103AF0008F4F9F4F9923A9F0F92F96E9BB279395F4
:103B0000F695879577956795B795F111F8CFFAF403
:103B1000BB0F11F460FF1BC06F5F7F4F8F4F9F4F34
:103B200016C0882311F096E911C0772321F09EE892
:103B3000872F762F05C0662371F096E8862F70E0F8
:103B400060E02AF09A95660F771F881FDAF7880FD2
:103B50009695879597F90895990F0008550FAA0B28
:103B6000E0E8FEEF16161706E807F907C0F0121690
:103B70001306E407F50798F0621B730B840B950B93
:103B800039F40A2661F0232B242B252B21F40895E8
:103B90000A2609F4A140A6958FEF811D811D089585
:103BA0000E94E31D0C94541E0E94461E38F00E9491
:103BB0004D1E20F0952311F00C943D1E0C94431ED5
:103BC00011240C94881E0E94651E70F3959FC1F30A
:103BD000950F50E0551F629FF001729FBB27F00DBB
:103BE000B11D639FAA27F00DB11DAA1F649F662710
:103BF000B00DA11D661F829F2227B00DA11D621F5F
:103C0000739FB00DA11D621F839FA00D611D221F18
:103C1000749F3327A00D611D231F849F600D211DFC
:103C2000822F762F6A2F11249F5750409AF0F1F07F
:103C300088234AF0EE0FFF1FBB1F661F771F881FE8
:103C400091505040A9F79E3F510580F00C943D1EC5
:103C50000C94881E5F3FE4F3983ED4F386957795E5
:103C60006795B795F795E7959F5FC1F7FE2B880F8E
:103C7000911D9695879597F9089597F99F6780E824
:103C800070E060E008959FEF80EC089500240A94AE
:103C90001616170618060906089500240A94121627
:103CA0001306140605060895092E0394000C11F45A
:103CB000882352F0BB0F40F4BF2B11F460FF04C007
:103CC0006F5F7F4F8F4F9F4F089557FD9058440F60
:103CD000551F59F05F3F71F04795880F97FB991F6B
:103CE00061F09F3F79F08795089512161306140628
:103CF000551FF2CF4695F1DF08C0161617061806B5
:103D0000991FF1CF86957105610508940895E8948F
:103D1000BB2766277727CB0197F908952F923F920B
:103D20004F925F926F927F928F929F92AF92BF92CB
:103D3000CF92DF92EF92FF920F931F93CF93DF9377
:103D4000CDB7DEB7CA1BDB0B0FB6F894DEBF0FBED4
:103D5000CDBF09942A88398848885F846E847D8421
:103D60008C849B84AA84B984C884DF80EE80FD8023
:103D70000C811B81AA81B981CE0FD11D0FB6F89499
:103D8000DEBF0FBECDBFED0108955058BB27AA2757
:103D90000E94DD1E0C94541E0E94461E38F00E94A4
:103DA0004D1E20F039F49F3F19F426F40C94431E65
:103DB0000EF4E095E7FB0C943D1EE92F0E94651E72
:103DC00058F3BA17620773078407950720F079F450
:103DD000A6F50C94871E0EF4E0950B2EBA2FA02D9D
:103DE0000B01B90190010C01CA01A0011124FF27A8
:103DF000591B99F0593F50F4503E68F11A16F040A3
:103E0000A22F232F342F4427585FF3CF46953795A1
:103E10002795A795F0405395C9F77EF41F16BA0B66
:103E2000620B730B840BBAF09150A1F0FF0FBB1F14
:103E3000661F771F881FC2F70EC0BA0F621F731F5D
:103E4000841F48F4879577956795B795F7959E3FBA
:103E500008F0B0CF9395880F08F09927EE0F97954B
:103E6000879508950E946D1E88F09F5798F0B92F8E
:103E70009927B751B0F0E1F0660F771F881F991F9F
:103E80001AF0BA95C9F714C0B13091F00E94871E9C
:103E9000B1E008950C94871E672F782F8827B85FAC
:103EA00039F0B93FCCF3869577956795B395D9F7F7
:103EB0003EF490958095709561957F4F8F4F9F4F01
:103EC00008950E94AC1D08F48FEF08950E94AC1D68
:103ED000880B990B0895A1E21A2EAA1BBB1BFD01AA
:103EE0000DC0AA1FBB1FEE1FFF1FA217B307E407D9
:103EF000F50720F0A21BB30BE40BF50B661F771F31
:103F0000881F991F1A9469F7609570958095909510
:103F10009B01AC01BD01CF010895EE0FFF1F05907D
:103F2000F491E02D0994CF93DF938230910510F442
:103F300082E090E0E0913404F091350420E030E03C
:103F4000C0E0D0E0309711F1408151814817590706
:103F5000C0F04817590761F482819381209719F0C6
:103F60009B838A832BC0909335048093340426C0AE
:103F70002115310519F04217530718F49A01BE01B3
:103F8000DF01EF010280F381E02DDCCF2115310547
:103F900009F1281B390B2430310590F412968D91CC
:103FA0009C9113976115710521F0FB019383828326
:103FB00004C09093350480933404FD01329644C0CC
:103FC000FD01E20FF31F81939193225031092D934C
:103FD0003C933AC02091320430913304232B41F4B6
:103FE00020910E0130910F0130933304209332045D
:103FF00020910C0130910D012115310541F42DB7AF
:104000003EB74091100150911101241B350BE091F6
:104010003204F0913304E217F307A0F42E1B3F0B98
:104020002817390778F0AC014E5F5F4F241735072A
:1040300048F04E0F5F1F5093330440933204819336
:10404000919302C0E0E0F0E0CF01DF91CF910895BD
:104050000F931F93CF93DF93009709F48CC0FC015B
:1040600032971382128200913404109135040115A5
:10407000110581F420813181820F931F2091320438
:10408000309133042817390779F5F0933304E0931E
:10409000320471C0D80140E050E0AE17BF0750F4C1
:1040A00012962D913C911397AD012115310509F11F
:1040B000D901F3CF9D01DA013383228360817181BD
:1040C000860F971F8217930769F4EC0128813981C5
:1040D000260F371F2E5F3F4F318320838A819B81BC
:1040E00093838283452B29F4F0933504E0933404C1
:1040F00042C01396FC93EE931297ED0149915991AA
:104100009E01240F351FE217F30771F4808191811E
:10411000840F951F029611969C938E9382819381B2
:1041200013969C938E931297E0E0F0E0D8011296DC
:104130008D919C911397009719F0F8018C01F6CF9F
:104140008D919C9198012E5F3F4F820F931F20917C
:104150003204309133042817390769F4309729F471
:10416000109235041092340402C01382128210930C
:10417000330400933204DF91CF911F910F91089582
:10418000A0E0B0E0E6ECF0E20C94921EEC010097A7
:1041900021F4CB010E94931FB8C0FC01E60FF71F6A
:1041A0009C0122503109E217F30708F4ACC0D90191
:1041B0000D911C91119706171707B0F005301105E6
:1041C00008F49FC0C80104978617970708F499C0A0
:1041D00002501109061B170B019311936D937C93E9
:1041E000CF010E9428208DC05B01A01AB10A4C01AA
:1041F000800E911EA0913404B091350440E050E04F
:10420000E12CF12C109709F44AC0A815B905D1F595
:104210006D907C901197630182E0C80ED11CCA1486
:10422000DB0480F1A3014A195B096A0182E0C80E30
:10423000D11C1296BC9012971396AC91B5E0CB1698
:10424000D10440F0B282A38351834083D9016D939E
:104250007C930AC00E5F1F4FC301800F911FF901AD
:1042600091838083EB2DFA2FE114F10431F0D70113
:104270001396FC93EE93129744C0F0933504E093A9
:1042800034043FC08D919C9111974817590708F449
:10429000AC017D0112960D90BC91A02DB3CF809101
:1042A00032049091330488159905E1F446175707B5
:1042B000C8F480910C0190910D01009741F48DB7E5
:1042C0009EB74091100150911101841B950BE81786
:1042D000F907C8F4F0933304E0933204F9017183D1
:1042E00060830FC0CB010E94931F7C01009759F09F
:1042F000A801BE010E948F21CE010E942820C70183
:1043000004C0CE0102C080E090E0CDB7DEB7EEE0A1
:104310000C94AE1E81E090E0F8940C949F21FB0178
:10432000DC0102C001900D9241505040D8F7089531
:10433000FB01DC0101900D920020E1F7089511E0EE
:10434000C6E6D1E004C0FE010E948D1F2196C7364B
:08435000D107C9F7F894FFCF73
:10435800FFFFFFFF00E1000000000000000036043E
:1043680080005858585858585831303000000000CC
:1043780065034C047C036403E104FE04EB040000C1
:104388000000F901521291014002C201A001B401DA
:10439800000000006C027F03040482028D020804FE
:1043A800260400000000350305037C03D902FD0242
:1043B800E902DA02000000004A0452127C037B037F
:1043C8004A044A044A04000000004A0452127C03CA
:1043D8007B0300C1808100000046726565736361DC
:1043E8006C65204D4D413734353520616363656C0C
:1043F80065726F6D65746572004D61792032303178
:104408003200546865204D4D413734353520697385
:10441800206F6B617900436865636B20796F7572F3
:1044280020776972696E67202100535441545553AF
:10443800203A20000D0A0057484F414D49203A20A4
:1044480000544F5554203A20002F6D6E742F73641A
:104458002F646174612E747874004E45572044416E
:104468005441534554006E6F2066696C652120578E
:104478006861747320676F696E67206F6E2064755A
:1044880064653F002C006E616E00696E66006F7691
:024498006600BC
:00000001FF
